{
  "_format": "hh-sol-artifact-1",
  "contractName": "CreatorFactory",
  "sourceName": "contracts/CreatorFactory.sol",
  "abi": [
    {
      "inputs": [],
      "stateMutability": "nonpayable",
      "type": "constructor"
    },
    {
      "inputs": [
        {
          "internalType": "address",
          "name": "owner",
          "type": "address"
        }
      ],
      "name": "OwnableInvalidOwner",
      "type": "error"
    },
    {
      "inputs": [
        {
          "internalType": "address",
          "name": "account",
          "type": "address"
        }
      ],
      "name": "OwnableUnauthorizedAccount",
      "type": "error"
    },
    {
      "anonymous": false,
      "inputs": [
        {
          "indexed": true,
          "internalType": "string",
          "name": "handle",
          "type": "string"
        },
        {
          "indexed": false,
          "internalType": "address",
          "name": "tokenAddress",
          "type": "address"
        },
        {
          "indexed": false,
          "internalType": "uint256",
          "name": "initialScore",
          "type": "uint256"
        },
        {
          "indexed": false,
          "internalType": "uint256",
          "name": "timestamp",
          "type": "uint256"
        }
      ],
      "name": "CreatorListed",
      "type": "event"
    },
    {
      "anonymous": false,
      "inputs": [
        {
          "indexed": true,
          "internalType": "address",
          "name": "previousOwner",
          "type": "address"
        },
        {
          "indexed": true,
          "internalType": "address",
          "name": "newOwner",
          "type": "address"
        }
      ],
      "name": "OwnershipTransferred",
      "type": "event"
    },
    {
      "anonymous": false,
      "inputs": [
        {
          "indexed": true,
          "internalType": "string",
          "name": "handle",
          "type": "string"
        },
        {
          "indexed": false,
          "internalType": "uint256",
          "name": "newScore",
          "type": "uint256"
        },
        {
          "indexed": false,
          "internalType": "uint256",
          "name": "timestamp",
          "type": "uint256"
        }
      ],
      "name": "ScoreUpdated",
      "type": "event"
    },
    {
      "inputs": [
        {
          "internalType": "uint256",
          "name": "",
          "type": "uint256"
        }
      ],
      "name": "allHandles",
      "outputs": [
        {
          "internalType": "string",
          "name": "",
          "type": "string"
        }
      ],
      "stateMutability": "view",
      "type": "function"
    },
    {
      "inputs": [
        {
          "internalType": "string[]",
          "name": "_handles",
          "type": "string[]"
        },
        {
          "internalType": "uint256[]",
          "name": "_scores",
          "type": "uint256[]"
        }
      ],
      "name": "batchUpdateScores",
      "outputs": [],
      "stateMutability": "nonpayable",
      "type": "function"
    },
    {
      "inputs": [
        {
          "internalType": "string",
          "name": "_handle",
          "type": "string"
        }
      ],
      "name": "creatorExists",
      "outputs": [
        {
          "internalType": "bool",
          "name": "",
          "type": "bool"
        }
      ],
      "stateMutability": "view",
      "type": "function"
    },
    {
      "inputs": [
        {
          "internalType": "string",
          "name": "",
          "type": "string"
        }
      ],
      "name": "creators",
      "outputs": [
        {
          "internalType": "address payable",
          "name": "tokenAddress",
          "type": "address"
        },
        {
          "internalType": "string",
          "name": "handle",
          "type": "string"
        },
        {
          "internalType": "uint256",
          "name": "initialScore",
          "type": "uint256"
        },
        {
          "internalType": "uint256",
          "name": "createdAt",
          "type": "uint256"
        },
        {
          "internalType": "bool",
          "name": "exists",
          "type": "bool"
        }
      ],
      "stateMutability": "view",
      "type": "function"
    },
    {
      "inputs": [],
      "name": "getCreatorCount",
      "outputs": [
        {
          "internalType": "uint256",
          "name": "",
          "type": "uint256"
        }
      ],
      "stateMutability": "view",
      "type": "function"
    },
    {
      "inputs": [
        {
          "internalType": "string",
          "name": "_handle",
          "type": "string"
        },
        {
          "internalType": "uint256",
          "name": "_initialScore",
          "type": "uint256"
        }
      ],
      "name": "listCreator",
      "outputs": [
        {
          "internalType": "address",
          "name": "",
          "type": "address"
        }
      ],
      "stateMutability": "nonpayable",
      "type": "function"
    },
    {
      "inputs": [],
      "name": "owner",
      "outputs": [
        {
          "internalType": "address",
          "name": "",
          "type": "address"
        }
      ],
      "stateMutability": "view",
      "type": "function"
    },
    {
      "inputs": [],
      "name": "renounceOwnership",
      "outputs": [],
      "stateMutability": "nonpayable",
      "type": "function"
    },
    {
      "inputs": [
        {
          "internalType": "string",
          "name": "_handle",
          "type": "string"
        }
      ],
      "name": "tokenOfHandle",
      "outputs": [
        {
          "internalType": "address",
          "name": "",
          "type": "address"
        }
      ],
      "stateMutability": "view",
      "type": "function"
    },
    {
      "inputs": [
        {
          "internalType": "address",
          "name": "newOwner",
          "type": "address"
        }
      ],
      "name": "transferOwnership",
      "outputs": [],
      "stateMutability": "nonpayable",
      "type": "function"
    },
    {
      "inputs": [
        {
          "internalType": "string",
          "name": "_handle",
          "type": "string"
        },
        {
          "internalType": "uint256",
          "name": "_newScore",
          "type": "uint256"
        }
      ],
      "name": "updateScore",
      "outputs": [],
      "stateMutability": "nonpayable",
      "type": "function"
    }
  ],
  "bytecode": "0x60806040523480156200001157600080fd5b5033600073ffffffffffffffffffffffffffffffffffffffff168173ffffffffffffffffffffffffffffffffffffffff1603620000885760006040517f1e4fbdf70000000000000000000000000000000000000000000000000000000081526004016200007f9190620001a9565b60405180910390fd5b6200009981620000a060201b60201c565b50620001c6565b60008060009054906101000a900473ffffffffffffffffffffffffffffffffffffffff169050816000806101000a81548173ffffffffffffffffffffffffffffffffffffffff021916908373ffffffffffffffffffffffffffffffffffffffff1602179055508173ffffffffffffffffffffffffffffffffffffffff168173ffffffffffffffffffffffffffffffffffffffff167f8be0079c531659141344cd1fd0a4f28419497f9722a3daafe3b4186f6b6457e060405160405180910390a35050565b600073ffffffffffffffffffffffffffffffffffffffff82169050919050565b6000620001918262000164565b9050919050565b620001a38162000184565b82525050565b6000602082019050620001c0600083018462000198565b92915050565b6148f880620001d66000396000f3fe60806040523480156200001157600080fd5b5060043610620000b85760003560e01c8063b6452ba5116200007b578063b6452ba5146200017b578063b819276414620001b1578063dfe6712e14620001d1578063e367ebed14620001f3578063f2fde38b1462000229578063ff7881b6146200024957620000b8565b806310e2c0fa14620000bd5780634864909d14620000f3578063715018a6146200012d5780638da5cb5b1462000139578063b5264efd146200015b575b600080fd5b620000db6004803603810190620000d5919062000fbf565b6200027f565b604051620000ea919062001059565b60405180910390f35b6200011160048036038101906200010b9190620011d3565b62000344565b604051620001249594939291906200130a565b60405180910390f35b620001376200044d565b005b6200014362000465565b60405162000152919062001059565b60405180910390f35b6200017960048036038101906200017391906200139f565b6200048e565b005b6200019960048036038101906200019391906200139f565b62000663565b604051620001a8919062001059565b60405180910390f35b620001cf6004803603810190620001c99190620014c7565b620009a8565b005b620001db62000c47565b604051620001ea919062001555565b60405180910390f35b6200021160048036038101906200020b919062000fbf565b62000c54565b60405162000220919062001572565b60405180910390f35b620002476004803603810190620002419190620015c0565b62000c91565b005b620002676004803603810190620002619190620015f2565b62000d1e565b60405162000276919062001624565b60405180910390f35b600060018383604051620002959291906200167c565b908152602001604051809103902060040160009054906101000a900460ff16620002f6576040517f08c379a0000000000000000000000000000000000000000000000000000000008152600401620002ed90620016e7565b60405180910390fd5b600183836040516200030a9291906200167c565b908152602001604051809103902060000160009054906101000a900473ffffffffffffffffffffffffffffffffffffffff16905092915050565b6001818051602081018201805184825260208301602085012081835280955050505050506000915090508060000160009054906101000a900473ffffffffffffffffffffffffffffffffffffffff1690806001018054620003a59062001738565b80601f0160208091040260200160405190810160405280929190818152602001828054620003d39062001738565b8015620004245780601f10620003f85761010080835404028352916020019162000424565b820191906000526020600020905b8154815290600101906020018083116200040657829003601f168201915b5050505050908060020154908060030154908060040160009054906101000a900460ff16905085565b6200045762000dd3565b62000463600062000e63565b565b60008060009054906101000a900473ffffffffffffffffffffffffffffffffffffffff16905090565b6200049862000dd3565b60018383604051620004ac9291906200167c565b908152602001604051809103902060040160009054906101000a900460ff166200050d576040517f08c379a00000000000000000000000000000000000000000000000000000000081526004016200050490620016e7565b60405180910390fd5b6103e881111562000555576040517f08c379a00000000000000000000000000000000000000000000000000000000081526004016200054c90620017bd565b60405180910390fd5b60018383604051620005699291906200167c565b908152602001604051809103902060000160009054906101000a900473ffffffffffffffffffffffffffffffffffffffff1673ffffffffffffffffffffffffffffffffffffffff1663ad0ebab1826040518263ffffffff1660e01b8152600401620005d5919062001555565b600060405180830381600087803b158015620005f057600080fd5b505af115801562000605573d6000803e3d6000fd5b5050505082826040516200061b9291906200167c565b60405180910390207fb24b4bb5cd6ef8c0a7b1c47461e5b1a3f0c24d61c871553049353860c0028763824260405162000656929190620017df565b60405180910390a2505050565b60006200066f62000dd3565b60018484604051620006839291906200167c565b908152602001604051809103902060040160009054906101000a900460ff1615620006e5576040517f08c379a0000000000000000000000000000000000000000000000000000000008152600401620006dc906200185c565b60405180910390fd5b6103e88211156200072d576040517f08c379a00000000000000000000000000000000000000000000000000000000081526004016200072490620017bd565b60405180910390fd5b6000848460405160200162000744929190620018ce565b6040516020818303038152906040529050600085856040516020016200076c92919062001946565b604051602081830303815290604052905060008686848488604051620007929062000f2f565b620007a2959493929190620019a1565b604051809103906000f080158015620007bf573d6000803e3d6000fd5b50905060008190506040518060a001604052808273ffffffffffffffffffffffffffffffffffffffff16815260200189898080601f016020809104026020016040519081016040528093929190818152602001838380828437600081840152601f19601f82011690508083019250505050505050815260200187815260200142815260200160011515815250600189896040516200085f9291906200167c565b908152602001604051809103902060008201518160000160006101000a81548173ffffffffffffffffffffffffffffffffffffffff021916908373ffffffffffffffffffffffffffffffffffffffff1602179055506020820151816001019081620008cb919062001bd7565b50604082015181600201556060820151816003015560808201518160040160006101000a81548160ff02191690831515021790555090505060028888909180600181540180825580915050600190039060005260206000200160009091929091929091929091925091826200094292919062001cc9565b508787604051620009559291906200167c565b60405180910390207f179b435570990c9d8b009748296f1a09a7ece02be8578c807a4bf480c7de0888828842604051620009929392919062001e0f565b60405180910390a2809450505050509392505050565b620009b262000dd3565b818190508484905014620009fd576040517f08c379a0000000000000000000000000000000000000000000000000000000008152600401620009f49062001e9c565b60405180910390fd5b60005b8484905081101562000c4057600185858381811062000a245762000a2362001ebe565b5b905060200281019062000a38919062001efc565b60405162000a489291906200167c565b908152602001604051809103902060040160009054906101000a900460ff16801562000a9257506103e883838381811062000a885762000a8762001ebe565b5b9050602002013511155b1562000c2a57600185858381811062000ab05762000aaf62001ebe565b5b905060200281019062000ac4919062001efc565b60405162000ad49291906200167c565b908152602001604051809103902060000160009054906101000a900473ffffffffffffffffffffffffffffffffffffffff1673ffffffffffffffffffffffffffffffffffffffff1663ad0ebab184848481811062000b375762000b3662001ebe565b5b905060200201356040518263ffffffff1660e01b815260040162000b5c919062001555565b600060405180830381600087803b15801562000b7757600080fd5b505af115801562000b8c573d6000803e3d6000fd5b5050505084848281811062000ba65762000ba562001ebe565b5b905060200281019062000bba919062001efc565b60405162000bca9291906200167c565b60405180910390207fb24b4bb5cd6ef8c0a7b1c47461e5b1a3f0c24d61c871553049353860c002876384848481811062000c095762000c0862001ebe565b5b905060200201354260405162000c21929190620017df565b60405180910390a25b808062000c379062001f97565b91505062000a00565b5050505050565b6000600280549050905090565b60006001838360405162000c6a9291906200167c565b908152602001604051809103902060040160009054906101000a900460ff16905092915050565b62000c9b62000dd3565b600073ffffffffffffffffffffffffffffffffffffffff168173ffffffffffffffffffffffffffffffffffffffff160362000d105760006040517f1e4fbdf700000000000000000000000000000000000000000000000000000000815260040162000d07919062001059565b60405180910390fd5b62000d1b8162000e63565b50565b6002818154811062000d2f57600080fd5b90600052602060002001600091509050805462000d4c9062001738565b80601f016020809104026020016040519081016040528092919081815260200182805462000d7a9062001738565b801562000dcb5780601f1062000d9f5761010080835404028352916020019162000dcb565b820191906000526020600020905b81548152906001019060200180831162000dad57829003601f168201915b505050505081565b62000ddd62000f27565b73ffffffffffffffffffffffffffffffffffffffff1662000dfd62000465565b73ffffffffffffffffffffffffffffffffffffffff161462000e615762000e2362000f27565b6040517f118cdaa700000000000000000000000000000000000000000000000000000000815260040162000e58919062001059565b60405180910390fd5b565b60008060009054906101000a900473ffffffffffffffffffffffffffffffffffffffff169050816000806101000a81548173ffffffffffffffffffffffffffffffffffffffff021916908373ffffffffffffffffffffffffffffffffffffffff1602179055508173ffffffffffffffffffffffffffffffffffffffff168173ffffffffffffffffffffffffffffffffffffffff167f8be0079c531659141344cd1fd0a4f28419497f9722a3daafe3b4186f6b6457e060405160405180910390a35050565b600033905090565b6128de8062001fe583390190565b6000604051905090565b600080fd5b600080fd5b600080fd5b600080fd5b600080fd5b60008083601f84011262000f795762000f7862000f51565b5b8235905067ffffffffffffffff81111562000f995762000f9862000f56565b5b60208301915083600182028301111562000fb85762000fb762000f5b565b5b9250929050565b6000806020838503121562000fd95762000fd862000f47565b5b600083013567ffffffffffffffff81111562000ffa5762000ff962000f4c565b5b620010088582860162000f60565b92509250509250929050565b600073ffffffffffffffffffffffffffffffffffffffff82169050919050565b6000620010418262001014565b9050919050565b620010538162001034565b82525050565b600060208201905062001070600083018462001048565b92915050565b600080fd5b6000601f19601f8301169050919050565b7f4e487b7100000000000000000000000000000000000000000000000000000000600052604160045260246000fd5b620010c6826200107b565b810181811067ffffffffffffffff82111715620010e857620010e76200108c565b5b80604052505050565b6000620010fd62000f3d565b90506200110b8282620010bb565b919050565b600067ffffffffffffffff8211156200112e576200112d6200108c565b5b62001139826200107b565b9050602081019050919050565b82818337600083830152505050565b60006200116c620011668462001110565b620010f1565b9050828152602081018484840111156200118b576200118a62001076565b5b6200119884828562001146565b509392505050565b600082601f830112620011b857620011b762000f51565b5b8135620011ca84826020860162001155565b91505092915050565b600060208284031215620011ec57620011eb62000f47565b5b600082013567ffffffffffffffff8111156200120d576200120c62000f4c565b5b6200121b84828501620011a0565b91505092915050565b6000620012318262001014565b9050919050565b620012438162001224565b82525050565b600081519050919050565b600082825260208201905092915050565b60005b838110156200128557808201518184015260208101905062001268565b60008484015250505050565b60006200129e8262001249565b620012aa818562001254565b9350620012bc81856020860162001265565b620012c7816200107b565b840191505092915050565b6000819050919050565b620012e781620012d2565b82525050565b60008115159050919050565b6200130481620012ed565b82525050565b600060a08201905062001321600083018862001238565b818103602083015262001335818762001291565b9050620013466040830186620012dc565b620013556060830185620012dc565b620013646080830184620012f9565b9695505050505050565b6200137981620012d2565b81146200138557600080fd5b50565b60008135905062001399816200136e565b92915050565b600080600060408486031215620013bb57620013ba62000f47565b5b600084013567ffffffffffffffff811115620013dc57620013db62000f4c565b5b620013ea8682870162000f60565b93509350506020620013ff8682870162001388565b9150509250925092565b60008083601f84011262001422576200142162000f51565b5b8235905067ffffffffffffffff81111562001442576200144162000f56565b5b60208301915083602082028301111562001461576200146062000f5b565b5b9250929050565b60008083601f84011262001481576200148062000f51565b5b8235905067ffffffffffffffff811115620014a157620014a062000f56565b5b602083019150836020820283011115620014c057620014bf62000f5b565b5b9250929050565b60008060008060408587031215620014e457620014e362000f47565b5b600085013567ffffffffffffffff81111562001505576200150462000f4c565b5b620015138782880162001409565b9450945050602085013567ffffffffffffffff81111562001539576200153862000f4c565b5b620015478782880162001468565b925092505092959194509250565b60006020820190506200156c6000830184620012dc565b92915050565b6000602082019050620015896000830184620012f9565b92915050565b6200159a8162001034565b8114620015a657600080fd5b50565b600081359050620015ba816200158f565b92915050565b600060208284031215620015d957620015d862000f47565b5b6000620015e984828501620015a9565b91505092915050565b6000602082840312156200160b576200160a62000f47565b5b60006200161b8482850162001388565b91505092915050565b6000602082019050818103600083015262001640818462001291565b905092915050565b600081905092915050565b600062001661838562001648565b93506200167083858462001146565b82840190509392505050565b60006200168b82848662001653565b91508190509392505050565b7f43726561746f7220646f6573206e6f7420657869737400000000000000000000600082015250565b6000620016cf60168362001254565b9150620016dc8262001697565b602082019050919050565b600060208201905081810360008301526200170281620016c0565b9050919050565b7f4e487b7100000000000000000000000000000000000000000000000000000000600052602260045260246000fd5b600060028204905060018216806200175157607f821691505b60208210810362001767576200176662001709565b5b50919050565b7f53636f7265206d757374206265203c3d20313030300000000000000000000000600082015250565b6000620017a560158362001254565b9150620017b2826200176d565b602082019050919050565b60006020820190508181036000830152620017d88162001796565b9050919050565b6000604082019050620017f66000830185620012dc565b620018056020830184620012dc565b9392505050565b7f43726561746f7220616c72656164792065786973747300000000000000000000600082015250565b60006200184460168362001254565b915062001851826200180c565b602082019050919050565b60006020820190508181036000830152620018778162001835565b9050919050565b7f43726561746f7220000000000000000000000000000000000000000000000000600082015250565b6000620018b660088362001648565b9150620018c3826200187e565b600882019050919050565b6000620018db82620018a7565b9150620018ea82848662001653565b91508190509392505050565b7f6300000000000000000000000000000000000000000000000000000000000000600082015250565b60006200192e60018362001648565b91506200193b82620018f6565b600182019050919050565b600062001953826200191f565b91506200196282848662001653565b91508190509392505050565b60006200197c838562001254565b93506200198b83858462001146565b62001996836200107b565b840190509392505050565b60006080820190508181036000830152620019be8187896200196e565b90508181036020830152620019d4818662001291565b90508181036040830152620019ea818562001291565b9050620019fb6060830184620012dc565b9695505050505050565b60008190508160005260206000209050919050565b60006020601f8301049050919050565b600082821b905092915050565b60006008830262001a697fffffffffffffffffffffffffffffffffffffffffffffffffffffffffffffffff8262001a2a565b62001a75868362001a2a565b95508019841693508086168417925050509392505050565b6000819050919050565b600062001ab862001ab262001aac84620012d2565b62001a8d565b620012d2565b9050919050565b6000819050919050565b62001ad48362001a97565b62001aec62001ae38262001abf565b84845462001a37565b825550505050565b600090565b62001b0362001af4565b62001b1081848462001ac9565b505050565b5b8181101562001b385762001b2c60008262001af9565b60018101905062001b16565b5050565b601f82111562001b875762001b518162001a05565b62001b5c8462001a1a565b8101602085101562001b6c578190505b62001b8462001b7b8562001a1a565b83018262001b15565b50505b505050565b600082821c905092915050565b600062001bac6000198460080262001b8c565b1980831691505092915050565b600062001bc7838362001b99565b9150826002028217905092915050565b62001be28262001249565b67ffffffffffffffff81111562001bfe5762001bfd6200108c565b5b62001c0a825462001738565b62001c1782828562001b3c565b600060209050601f83116001811462001c4f576000841562001c3a578287015190505b62001c46858262001bb9565b86555062001cb6565b601f19841662001c5f8662001a05565b60005b8281101562001c895784890151825560018201915060208501945060208101905062001c62565b8683101562001ca9578489015162001ca5601f89168262001b99565b8355505b6001600288020188555050505b505050505050565b600082905092915050565b62001cd5838362001cbe565b67ffffffffffffffff81111562001cf15762001cf06200108c565b5b62001cfd825462001738565b62001d0a82828562001b3c565b6000601f83116001811462001d3e576000841562001d29578287013590505b62001d35858262001bb9565b86555062001da5565b601f19841662001d4e8662001a05565b60005b8281101562001d785784890135825560018201915060208501945060208101905062001d51565b8683101562001d98578489013562001d94601f89168262001b99565b8355505b6001600288020188555050505b50505050505050565b600062001dcf62001dc962001dc38462001014565b62001a8d565b62001014565b9050919050565b600062001de38262001dae565b9050919050565b600062001df78262001dd6565b9050919050565b62001e098162001dea565b82525050565b600060608201905062001e26600083018662001dfe565b62001e356020830185620012dc565b62001e446040830184620012dc565b949350505050565b7f4c656e677468206d69736d617463680000000000000000000000000000000000600082015250565b600062001e84600f8362001254565b915062001e918262001e4c565b602082019050919050565b6000602082019050818103600083015262001eb78162001e75565b9050919050565b7f4e487b7100000000000000000000000000000000000000000000000000000000600052603260045260246000fd5b600080fd5b600080fd5b600080fd5b6000808335600160200384360303811262001f1c5762001f1b62001eed565b5b80840192508235915067ffffffffffffffff82111562001f415762001f4062001ef2565b5b60208301925060018202360383131562001f605762001f5f62001ef7565b5b509250929050565b7f4e487b7100000000000000000000000000000000000000000000000000000000600052601160045260246000fd5b600062001fa482620012d2565b91507fffffffffffffffffffffffffffffffffffffffffffffffffffffffffffffffff820362001fd95762001fd862001f68565b5b60018201905091905056fe60806040523480156200001157600080fd5b50604051620028de380380620028de83398181016040528101906200003791906200067e565b33838381600390816200004b91906200098e565b5080600490816200005d91906200098e565b505050600073ffffffffffffffffffffffffffffffffffffffff168173ffffffffffffffffffffffffffffffffffffffff1603620000d55760006040517f1e4fbdf7000000000000000000000000000000000000000000000000000000008152600401620000cc919062000aba565b60405180910390fd5b620000e6816200012d60201b60201c565b508360069081620000f891906200098e565b508060078190555042600881905550620001233069d3c21bcecceda1000000620001f360201b60201c565b5050505062000bac565b6000600560009054906101000a900473ffffffffffffffffffffffffffffffffffffffff16905081600560006101000a81548173ffffffffffffffffffffffffffffffffffffffff021916908373ffffffffffffffffffffffffffffffffffffffff1602179055508173ffffffffffffffffffffffffffffffffffffffff168173ffffffffffffffffffffffffffffffffffffffff167f8be0079c531659141344cd1fd0a4f28419497f9722a3daafe3b4186f6b6457e060405160405180910390a35050565b600073ffffffffffffffffffffffffffffffffffffffff168273ffffffffffffffffffffffffffffffffffffffff1603620002685760006040517fec442f050000000000000000000000000000000000000000000000000000000081526004016200025f919062000aba565b60405180910390fd5b6200027c600083836200028060201b60201c565b5050565b600073ffffffffffffffffffffffffffffffffffffffff168373ffffffffffffffffffffffffffffffffffffffff1603620002d6578060026000828254620002c9919062000b06565b92505081905550620003ac565b60008060008573ffffffffffffffffffffffffffffffffffffffff1673ffffffffffffffffffffffffffffffffffffffff1681526020019081526020016000205490508181101562000365578381836040517fe450d38c0000000000000000000000000000000000000000000000000000000081526004016200035c9392919062000b52565b60405180910390fd5b8181036000808673ffffffffffffffffffffffffffffffffffffffff1673ffffffffffffffffffffffffffffffffffffffff16815260200190815260200160002081905550505b600073ffffffffffffffffffffffffffffffffffffffff168273ffffffffffffffffffffffffffffffffffffffff1603620003f7578060026000828254039250508190555062000444565b806000808473ffffffffffffffffffffffffffffffffffffffff1673ffffffffffffffffffffffffffffffffffffffff168152602001908152602001600020600082825401925050819055505b8173ffffffffffffffffffffffffffffffffffffffff168373ffffffffffffffffffffffffffffffffffffffff167fddf252ad1be2c89b69c2b068fc378daa952ba7f163c4a11628f55a4df523b3ef83604051620004a3919062000b8f565b60405180910390a3505050565b6000604051905090565b600080fd5b600080fd5b600080fd5b600080fd5b6000601f19601f8301169050919050565b7f4e487b7100000000000000000000000000000000000000000000000000000000600052604160045260246000fd5b6200051982620004ce565b810181811067ffffffffffffffff821117156200053b576200053a620004df565b5b80604052505050565b600062000550620004b0565b90506200055e82826200050e565b919050565b600067ffffffffffffffff821115620005815762000580620004df565b5b6200058c82620004ce565b9050602081019050919050565b60005b83811015620005b95780820151818401526020810190506200059c565b60008484015250505050565b6000620005dc620005d68462000563565b62000544565b905082815260208101848484011115620005fb57620005fa620004c9565b5b6200060884828562000599565b509392505050565b600082601f830112620006285762000627620004c4565b5b81516200063a848260208601620005c5565b91505092915050565b6000819050919050565b620006588162000643565b81146200066457600080fd5b50565b60008151905062000678816200064d565b92915050565b600080600080608085870312156200069b576200069a620004ba565b5b600085015167ffffffffffffffff811115620006bc57620006bb620004bf565b5b620006ca8782880162000610565b945050602085015167ffffffffffffffff811115620006ee57620006ed620004bf565b5b620006fc8782880162000610565b935050604085015167ffffffffffffffff81111562000720576200071f620004bf565b5b6200072e8782880162000610565b9250506060620007418782880162000667565b91505092959194509250565b600081519050919050565b7f4e487b7100000000000000000000000000000000000000000000000000000000600052602260045260246000fd5b60006002820490506001821680620007a057607f821691505b602082108103620007b657620007b562000758565b5b50919050565b60008190508160005260206000209050919050565b60006020601f8301049050919050565b600082821b905092915050565b600060088302620008207fffffffffffffffffffffffffffffffffffffffffffffffffffffffffffffffff82620007e1565b6200082c8683620007e1565b95508019841693508086168417925050509392505050565b6000819050919050565b60006200086f62000869620008638462000643565b62000844565b62000643565b9050919050565b6000819050919050565b6200088b836200084e565b620008a36200089a8262000876565b848454620007ee565b825550505050565b600090565b620008ba620008ab565b620008c781848462000880565b505050565b5b81811015620008ef57620008e3600082620008b0565b600181019050620008cd565b5050565b601f8211156200093e576200090881620007bc565b6200091384620007d1565b8101602085101562000923578190505b6200093b6200093285620007d1565b830182620008cc565b50505b505050565b600082821c905092915050565b6000620009636000198460080262000943565b1980831691505092915050565b60006200097e838362000950565b9150826002028217905092915050565b62000999826200074d565b67ffffffffffffffff811115620009b557620009b4620004df565b5b620009c1825462000787565b620009ce828285620008f3565b600060209050601f83116001811462000a065760008415620009f1578287015190505b620009fd858262000970565b86555062000a6d565b601f19841662000a1686620007bc565b60005b8281101562000a405784890151825560018201915060208501945060208101905062000a19565b8683101562000a60578489015162000a5c601f89168262000950565b8355505b6001600288020188555050505b505050505050565b600073ffffffffffffffffffffffffffffffffffffffff82169050919050565b600062000aa28262000a75565b9050919050565b62000ab48162000a95565b82525050565b600060208201905062000ad1600083018462000aa9565b92915050565b7f4e487b7100000000000000000000000000000000000000000000000000000000600052601160045260246000fd5b600062000b138262000643565b915062000b208362000643565b925082820190508082111562000b3b5762000b3a62000ad7565b5b92915050565b62000b4c8162000643565b82525050565b600060608201905062000b69600083018662000aa9565b62000b78602083018562000b41565b62000b87604083018462000b41565b949350505050565b600060208201905062000ba6600083018462000b41565b92915050565b611d228062000bbc6000396000f3fe60806040526004361061012e5760003560e01c806395d89b41116100ab578063d63efc5e1161006f578063d63efc5e146103d0578063dd62ed3e146103fb578063e4849b3214610438578063eb91d37e14610461578063f2fde38b1461048c578063fd0da099146104b557610135565b806395d89b411461030a578063a6f2ae3a14610335578063a9059cbb1461033f578063ad0ebab11461037c578063c0463711146103a557610135565b8063313ce567116100f2578063313ce567146102355780636f9fb98a1461026057806370a082311461028b578063715018a6146102c85780638da5cb5b146102df57610135565b806306fdde031461013a578063095ea7b31461016557806318160ddd146101a257806323b872dd146101cd5780632ff2e9dc1461020a57610135565b3661013557005b600080fd5b34801561014657600080fd5b5061014f6104e0565b60405161015c91906114d9565b60405180910390f35b34801561017157600080fd5b5061018c60048036038101906101879190611594565b610572565b60405161019991906115ef565b60405180910390f35b3480156101ae57600080fd5b506101b7610595565b6040516101c49190611619565b60405180910390f35b3480156101d957600080fd5b506101f460048036038101906101ef9190611634565b61059f565b60405161020191906115ef565b60405180910390f35b34801561021657600080fd5b5061021f6105ce565b60405161022c9190611619565b60405180910390f35b34801561024157600080fd5b5061024a6105dc565b60405161025791906116a3565b60405180910390f35b34801561026c57600080fd5b506102756105e5565b6040516102829190611619565b60405180910390f35b34801561029757600080fd5b506102b260048036038101906102ad91906116be565b6105ed565b6040516102bf9190611619565b60405180910390f35b3480156102d457600080fd5b506102dd610635565b005b3480156102eb57600080fd5b506102f4610649565b60405161030191906116fa565b60405180910390f35b34801561031657600080fd5b5061031f610673565b60405161032c91906114d9565b60405180910390f35b61033d610705565b005b34801561034b57600080fd5b5061036660048036038101906103619190611594565b610827565b60405161037391906115ef565b60405180910390f35b34801561038857600080fd5b506103a3600480360381019061039e9190611715565b61084a565b005b3480156103b157600080fd5b506103ba6108eb565b6040516103c79190611619565b60405180910390f35b3480156103dc57600080fd5b506103e56108f1565b6040516103f29190611619565b60405180910390f35b34801561040757600080fd5b50610422600480360381019061041d9190611742565b6108f7565b60405161042f9190611619565b60405180910390f35b34801561044457600080fd5b5061045f600480360381019061045a9190611715565b61097e565b005b34801561046d57600080fd5b50610476610bae565b6040516104839190611619565b60405180910390f35b34801561049857600080fd5b506104b360048036038101906104ae91906116be565b610c49565b005b3480156104c157600080fd5b506104ca610ccf565b6040516104d791906114d9565b60405180910390f35b6060600380546104ef906117b1565b80601f016020809104026020016040519081016040528092919081815260200182805461051b906117b1565b80156105685780601f1061053d57610100808354040283529160200191610568565b820191906000526020600020905b81548152906001019060200180831161054b57829003601f168201915b5050505050905090565b60008061057d610d5d565b905061058a818585610d65565b600191505092915050565b6000600254905090565b6000806105aa610d5d565b90506105b7858285610d77565b6105c2858585610e0c565b60019150509392505050565b69d3c21bcecceda100000081565b60006012905090565b600047905090565b60008060008373ffffffffffffffffffffffffffffffffffffffff1673ffffffffffffffffffffffffffffffffffffffff168152602001908152602001600020549050919050565b61063d610f00565b6106476000610f87565b565b6000600560009054906101000a900473ffffffffffffffffffffffffffffffffffffffff16905090565b606060048054610682906117b1565b80601f01602080910402602001604051908101604052809291908181526020018280546106ae906117b1565b80156106fb5780601f106106d0576101008083540402835291602001916106fb565b820191906000526020600020905b8154815290600101906020018083116106de57829003601f168201915b5050505050905090565b60003411610748576040517f08c379a000000000000000000000000000000000000000000000000000000000815260040161073f9061182e565b60405180910390fd5b6000610752610bae565b9050600081670de0b6b3a76400003461076b919061187d565b61077591906118ee565b90506000610782306105ed565b9050808211156107c7576040517f08c379a00000000000000000000000000000000000000000000000000000000081526004016107be9061196b565b60405180910390fd5b6107d2303384610e0c565b3373ffffffffffffffffffffffffffffffffffffffff167f8fafebcaf9d154343dad25669bfa277f4fbacd7ac6b0c4fed522580e040a0f33348460405161081a92919061198b565b60405180910390a2505050565b600080610832610d5d565b905061083f818585610e0c565b600191505092915050565b610852610f00565b6103e8811115610897576040517f08c379a000000000000000000000000000000000000000000000000000000000815260040161088e90611a00565b60405180910390fd5b6000600754905081600781905550426008819055507fb2383e82269e758b9ec0fc961ac69cecc166570a12068c11b3f9cf29c8de9e888183426040516108df93929190611a20565b60405180910390a15050565b60085481565b60075481565b6000600160008473ffffffffffffffffffffffffffffffffffffffff1673ffffffffffffffffffffffffffffffffffffffff16815260200190815260200160002060008373ffffffffffffffffffffffffffffffffffffffff1673ffffffffffffffffffffffffffffffffffffffff16815260200190815260200160002054905092915050565b600081116109c1576040517f08c379a00000000000000000000000000000000000000000000000000000000081526004016109b890611aa3565b60405180910390fd5b806109cb336105ed565b1015610a0c576040517f08c379a0000000000000000000000000000000000000000000000000000000008152600401610a0390611b0f565b60405180910390fd5b6000610a16610bae565b90506000670de0b6b3a76400008284610a2f919061187d565b610a3991906118ee565b90506000606482610a4a91906118ee565b905060008183610a5a9190611b2f565b905080471015610a9f576040517f08c379a0000000000000000000000000000000000000000000000000000000008152600401610a9690611baf565b60405180910390fd5b610aaa333087610e0c565b60003373ffffffffffffffffffffffffffffffffffffffff1682604051610ad090611c00565b60006040518083038185875af1925050503d8060008114610b0d576040519150601f19603f3d011682016040523d82523d6000602084013e610b12565b606091505b5050905080610b56576040517f08c379a0000000000000000000000000000000000000000000000000000000008152600401610b4d90611c61565b60405180910390fd5b3373ffffffffffffffffffffffffffffffffffffffff167f2dcf9433d75db0d8b1c172641f85e319ffe4ad22e108a95d1847ceb906e5195d8784604051610b9e92919061198b565b60405180910390a2505050505050565b600080610bba306105ed565b69d3c21bcecceda1000000610bcf9190611b2f565b90506000655af3107a4000905060006402540be400905060006007546064610bf79190611c81565b90506000670de0b6b3a76400008584610c10919061187d565b610c1a91906118ee565b84610c259190611c81565b905060648282610c35919061187d565b610c3f91906118ee565b9550505050505090565b610c51610f00565b600073ffffffffffffffffffffffffffffffffffffffff168173ffffffffffffffffffffffffffffffffffffffff1603610cc35760006040517f1e4fbdf7000000000000000000000000000000000000000000000000000000008152600401610cba91906116fa565b60405180910390fd5b610ccc81610f87565b50565b60068054610cdc906117b1565b80601f0160208091040260200160405190810160405280929190818152602001828054610d08906117b1565b8015610d555780601f10610d2a57610100808354040283529160200191610d55565b820191906000526020600020905b815481529060010190602001808311610d3857829003601f168201915b505050505081565b600033905090565b610d72838383600161104d565b505050565b6000610d8384846108f7565b90507fffffffffffffffffffffffffffffffffffffffffffffffffffffffffffffffff811015610e065781811015610df6578281836040517ffb8f41b2000000000000000000000000000000000000000000000000000000008152600401610ded93929190611cb5565b60405180910390fd5b610e058484848403600061104d565b5b50505050565b600073ffffffffffffffffffffffffffffffffffffffff168373ffffffffffffffffffffffffffffffffffffffff1603610e7e5760006040517f96c6fd1e000000000000000000000000000000000000000000000000000000008152600401610e7591906116fa565b60405180910390fd5b600073ffffffffffffffffffffffffffffffffffffffff168273ffffffffffffffffffffffffffffffffffffffff1603610ef05760006040517fec442f05000000000000000000000000000000000000000000000000000000008152600401610ee791906116fa565b60405180910390fd5b610efb838383611224565b505050565b610f08610d5d565b73ffffffffffffffffffffffffffffffffffffffff16610f26610649565b73ffffffffffffffffffffffffffffffffffffffff1614610f8557610f49610d5d565b6040517f118cdaa7000000000000000000000000000000000000000000000000000000008152600401610f7c91906116fa565b60405180910390fd5b565b6000600560009054906101000a900473ffffffffffffffffffffffffffffffffffffffff16905081600560006101000a81548173ffffffffffffffffffffffffffffffffffffffff021916908373ffffffffffffffffffffffffffffffffffffffff1602179055508173ffffffffffffffffffffffffffffffffffffffff168173ffffffffffffffffffffffffffffffffffffffff167f8be0079c531659141344cd1fd0a4f28419497f9722a3daafe3b4186f6b6457e060405160405180910390a35050565b600073ffffffffffffffffffffffffffffffffffffffff168473ffffffffffffffffffffffffffffffffffffffff16036110bf5760006040517fe602df050000000000000000000000000000000000000000000000000000000081526004016110b691906116fa565b60405180910390fd5b600073ffffffffffffffffffffffffffffffffffffffff168373ffffffffffffffffffffffffffffffffffffffff16036111315760006040517f94280d6200000000000000000000000000000000000000000000000000000000815260040161112891906116fa565b60405180910390fd5b81600160008673ffffffffffffffffffffffffffffffffffffffff1673ffffffffffffffffffffffffffffffffffffffff16815260200190815260200160002060008573ffffffffffffffffffffffffffffffffffffffff1673ffffffffffffffffffffffffffffffffffffffff16815260200190815260200160002081905550801561121e578273ffffffffffffffffffffffffffffffffffffffff168473ffffffffffffffffffffffffffffffffffffffff167f8c5be1e5ebec7d5bd14f71427d1e84f3dd0314c0f7b2291e5b200ac8c7c3b925846040516112159190611619565b60405180910390a35b50505050565b600073ffffffffffffffffffffffffffffffffffffffff168373ffffffffffffffffffffffffffffffffffffffff160361127657806002600082825461126a9190611c81565b92505081905550611349565b60008060008573ffffffffffffffffffffffffffffffffffffffff1673ffffffffffffffffffffffffffffffffffffffff16815260200190815260200160002054905081811015611302578381836040517fe450d38c0000000000000000000000000000000000000000000000000000000081526004016112f993929190611cb5565b60405180910390fd5b8181036000808673ffffffffffffffffffffffffffffffffffffffff1673ffffffffffffffffffffffffffffffffffffffff16815260200190815260200160002081905550505b600073ffffffffffffffffffffffffffffffffffffffff168273ffffffffffffffffffffffffffffffffffffffff160361139257806002600082825403925050819055506113df565b806000808473ffffffffffffffffffffffffffffffffffffffff1673ffffffffffffffffffffffffffffffffffffffff168152602001908152602001600020600082825401925050819055505b8173ffffffffffffffffffffffffffffffffffffffff168373ffffffffffffffffffffffffffffffffffffffff167fddf252ad1be2c89b69c2b068fc378daa952ba7f163c4a11628f55a4df523b3ef8360405161143c9190611619565b60405180910390a3505050565b600081519050919050565b600082825260208201905092915050565b60005b83811015611483578082015181840152602081019050611468565b60008484015250505050565b6000601f19601f8301169050919050565b60006114ab82611449565b6114b58185611454565b93506114c5818560208601611465565b6114ce8161148f565b840191505092915050565b600060208201905081810360008301526114f381846114a0565b905092915050565b600080fd5b600073ffffffffffffffffffffffffffffffffffffffff82169050919050565b600061152b82611500565b9050919050565b61153b81611520565b811461154657600080fd5b50565b60008135905061155881611532565b92915050565b6000819050919050565b6115718161155e565b811461157c57600080fd5b50565b60008135905061158e81611568565b92915050565b600080604083850312156115ab576115aa6114fb565b5b60006115b985828601611549565b92505060206115ca8582860161157f565b9150509250929050565b60008115159050919050565b6115e9816115d4565b82525050565b600060208201905061160460008301846115e0565b92915050565b6116138161155e565b82525050565b600060208201905061162e600083018461160a565b92915050565b60008060006060848603121561164d5761164c6114fb565b5b600061165b86828701611549565b935050602061166c86828701611549565b925050604061167d8682870161157f565b9150509250925092565b600060ff82169050919050565b61169d81611687565b82525050565b60006020820190506116b86000830184611694565b92915050565b6000602082840312156116d4576116d36114fb565b5b60006116e284828501611549565b91505092915050565b6116f481611520565b82525050565b600060208201905061170f60008301846116eb565b92915050565b60006020828403121561172b5761172a6114fb565b5b60006117398482850161157f565b91505092915050565b60008060408385031215611759576117586114fb565b5b600061176785828601611549565b925050602061177885828601611549565b9150509250929050565b7f4e487b7100000000000000000000000000000000000000000000000000000000600052602260045260246000fd5b600060028204905060018216806117c957607f821691505b6020821081036117dc576117db611782565b5b50919050565b7f4d7573742073656e642045544800000000000000000000000000000000000000600082015250565b6000611818600d83611454565b9150611823826117e2565b602082019050919050565b600060208201905081810360008301526118478161180b565b9050919050565b7f4e487b7100000000000000000000000000000000000000000000000000000000600052601160045260246000fd5b60006118888261155e565b91506118938361155e565b92508282026118a18161155e565b915082820484148315176118b8576118b761184e565b5b5092915050565b7f4e487b7100000000000000000000000000000000000000000000000000000000600052601260045260246000fd5b60006118f98261155e565b91506119048361155e565b925082611914576119136118bf565b5b828204905092915050565b7f4e6f7420656e6f75676820746f6b656e7320617661696c61626c650000000000600082015250565b6000611955601b83611454565b91506119608261191f565b602082019050919050565b6000602082019050818103600083015261198481611948565b9050919050565b60006040820190506119a0600083018561160a565b6119ad602083018461160a565b9392505050565b7f53636f7265206d757374206265203c3d20313030300000000000000000000000600082015250565b60006119ea601583611454565b91506119f5826119b4565b602082019050919050565b60006020820190508181036000830152611a19816119dd565b9050919050565b6000606082019050611a35600083018661160a565b611a42602083018561160a565b611a4f604083018461160a565b949350505050565b7f4d7573742073656c6c203e203000000000000000000000000000000000000000600082015250565b6000611a8d600d83611454565b9150611a9882611a57565b602082019050919050565b60006020820190508181036000830152611abc81611a80565b9050919050565b7f496e73756666696369656e742062616c616e6365000000000000000000000000600082015250565b6000611af9601483611454565b9150611b0482611ac3565b602082019050919050565b60006020820190508181036000830152611b2881611aec565b9050919050565b6000611b3a8261155e565b9150611b458361155e565b9250828203905081811115611b5d57611b5c61184e565b5b92915050565b7f496e73756666696369656e742045544820696e20636f6e747261637400000000600082015250565b6000611b99601c83611454565b9150611ba482611b63565b602082019050919050565b60006020820190508181036000830152611bc881611b8c565b9050919050565b600081905092915050565b50565b6000611bea600083611bcf565b9150611bf582611bda565b600082019050919050565b6000611c0b82611bdd565b9150819050919050565b7f455448207472616e73666572206661696c656400000000000000000000000000600082015250565b6000611c4b601383611454565b9150611c5682611c15565b602082019050919050565b60006020820190508181036000830152611c7a81611c3e565b9050919050565b6000611c8c8261155e565b9150611c978361155e565b9250828201905080821115611caf57611cae61184e565b5b92915050565b6000606082019050611cca60008301866116eb565b611cd7602083018561160a565b611ce4604083018461160a565b94935050505056fea2646970667358221220c8bc7d13f84f10118641a9418e88c6b70d223989e03dfa5d612b8f34398ac72664736f6c63430008140033a2646970667358221220eee131414d9c77ebfe8ec012ff82e33660cae8b050f14aaeb38072a9f1798a5164736f6c63430008140033",
  "linkReferences": {},
  "deployedLinkReferences": {}
}