{
  "_format": "hh-sol-artifact-1",
  "contractName": "CreatorToken",
  "sourceName": "contracts/CreatorToken.sol",
  "abi": [
    {
      "inputs": [
        {
          "internalType": "string",
          "name": "_handle",
          "type": "string"
        },
        {
          "internalType": "string",
          "name": "_name",
          "type": "string"
        },
        {
          "internalType": "string",
          "name": "_symbol",
          "type": "string"
        },
        {
          "internalType": "uint256",
          "name": "_initialScore",
          "type": "uint256"
        }
      ],
      "stateMutability": "nonpayable",
      "type": "constructor"
    },
    {
      "inputs": [
        {
          "internalType": "address",
          "name": "spender",
          "type": "address"
        },
        {
          "internalType": "uint256",
          "name": "allowance",
          "type": "uint256"
        },
        {
          "internalType": "uint256",
          "name": "needed",
          "type": "uint256"
        }
      ],
      "name": "ERC20InsufficientAllowance",
      "type": "error"
    },
    {
      "inputs": [
        {
          "internalType": "address",
          "name": "sender",
          "type": "address"
        },
        {
          "internalType": "uint256",
          "name": "balance",
          "type": "uint256"
        },
        {
          "internalType": "uint256",
          "name": "needed",
          "type": "uint256"
        }
      ],
      "name": "ERC20InsufficientBalance",
      "type": "error"
    },
    {
      "inputs": [
        {
          "internalType": "address",
          "name": "approver",
          "type": "address"
        }
      ],
      "name": "ERC20InvalidApprover",
      "type": "error"
    },
    {
      "inputs": [
        {
          "internalType": "address",
          "name": "receiver",
          "type": "address"
        }
      ],
      "name": "ERC20InvalidReceiver",
      "type": "error"
    },
    {
      "inputs": [
        {
          "internalType": "address",
          "name": "sender",
          "type": "address"
        }
      ],
      "name": "ERC20InvalidSender",
      "type": "error"
    },
    {
      "inputs": [
        {
          "internalType": "address",
          "name": "spender",
          "type": "address"
        }
      ],
      "name": "ERC20InvalidSpender",
      "type": "error"
    },
    {
      "inputs": [
        {
          "internalType": "address",
          "name": "owner",
          "type": "address"
        }
      ],
      "name": "OwnableInvalidOwner",
      "type": "error"
    },
    {
      "inputs": [
        {
          "internalType": "address",
          "name": "account",
          "type": "address"
        }
      ],
      "name": "OwnableUnauthorizedAccount",
      "type": "error"
    },
    {
      "anonymous": false,
      "inputs": [
        {
          "indexed": true,
          "internalType": "address",
          "name": "owner",
          "type": "address"
        },
        {
          "indexed": true,
          "internalType": "address",
          "name": "spender",
          "type": "address"
        },
        {
          "indexed": false,
          "internalType": "uint256",
          "name": "value",
          "type": "uint256"
        }
      ],
      "name": "Approval",
      "type": "event"
    },
    {
      "anonymous": false,
      "inputs": [
        {
          "indexed": true,
          "internalType": "address",
          "name": "previousOwner",
          "type": "address"
        },
        {
          "indexed": true,
          "internalType": "address",
          "name": "newOwner",
          "type": "address"
        }
      ],
      "name": "OwnershipTransferred",
      "type": "event"
    },
    {
      "anonymous": false,
      "inputs": [
        {
          "indexed": false,
          "internalType": "uint256",
          "name": "oldScore",
          "type": "uint256"
        },
        {
          "indexed": false,
          "internalType": "uint256",
          "name": "newScore",
          "type": "uint256"
        },
        {
          "indexed": false,
          "internalType": "uint256",
          "name": "timestamp",
          "type": "uint256"
        }
      ],
      "name": "ScoreUpdated",
      "type": "event"
    },
    {
      "anonymous": false,
      "inputs": [
        {
          "indexed": true,
          "internalType": "address",
          "name": "buyer",
          "type": "address"
        },
        {
          "indexed": false,
          "internalType": "uint256",
          "name": "ethIn",
          "type": "uint256"
        },
        {
          "indexed": false,
          "internalType": "uint256",
          "name": "tokensOut",
          "type": "uint256"
        }
      ],
      "name": "TokensPurchased",
      "type": "event"
    },
    {
      "anonymous": false,
      "inputs": [
        {
          "indexed": true,
          "internalType": "address",
          "name": "seller",
          "type": "address"
        },
        {
          "indexed": false,
          "internalType": "uint256",
          "name": "tokensIn",
          "type": "uint256"
        },
        {
          "indexed": false,
          "internalType": "uint256",
          "name": "ethOut",
          "type": "uint256"
        }
      ],
      "name": "TokensSold",
      "type": "event"
    },
    {
      "anonymous": false,
      "inputs": [
        {
          "indexed": true,
          "internalType": "address",
          "name": "from",
          "type": "address"
        },
        {
          "indexed": true,
          "internalType": "address",
          "name": "to",
          "type": "address"
        },
        {
          "indexed": false,
          "internalType": "uint256",
          "name": "value",
          "type": "uint256"
        }
      ],
      "name": "Transfer",
      "type": "event"
    },
    {
      "inputs": [],
      "name": "INITIAL_SUPPLY",
      "outputs": [
        {
          "internalType": "uint256",
          "name": "",
          "type": "uint256"
        }
      ],
      "stateMutability": "view",
      "type": "function"
    },
    {
      "inputs": [
        {
          "internalType": "address",
          "name": "owner",
          "type": "address"
        },
        {
          "internalType": "address",
          "name": "spender",
          "type": "address"
        }
      ],
      "name": "allowance",
      "outputs": [
        {
          "internalType": "uint256",
          "name": "",
          "type": "uint256"
        }
      ],
      "stateMutability": "view",
      "type": "function"
    },
    {
      "inputs": [
        {
          "internalType": "address",
          "name": "spender",
          "type": "address"
        },
        {
          "internalType": "uint256",
          "name": "value",
          "type": "uint256"
        }
      ],
      "name": "approve",
      "outputs": [
        {
          "internalType": "bool",
          "name": "",
          "type": "bool"
        }
      ],
      "stateMutability": "nonpayable",
      "type": "function"
    },
    {
      "inputs": [
        {
          "internalType": "address",
          "name": "account",
          "type": "address"
        }
      ],
      "name": "balanceOf",
      "outputs": [
        {
          "internalType": "uint256",
          "name": "",
          "type": "uint256"
        }
      ],
      "stateMutability": "view",
      "type": "function"
    },
    {
      "inputs": [],
      "name": "buy",
      "outputs": [],
      "stateMutability": "payable",
      "type": "function"
    },
    {
      "inputs": [],
      "name": "decimals",
      "outputs": [
        {
          "internalType": "uint8",
          "name": "",
          "type": "uint8"
        }
      ],
      "stateMutability": "view",
      "type": "function"
    },
    {
      "inputs": [],
      "name": "engagementScore",
      "outputs": [
        {
          "internalType": "uint256",
          "name": "",
          "type": "uint256"
        }
      ],
      "stateMutability": "view",
      "type": "function"
    },
    {
      "inputs": [],
      "name": "getContractBalance",
      "outputs": [
        {
          "internalType": "uint256",
          "name": "",
          "type": "uint256"
        }
      ],
      "stateMutability": "view",
      "type": "function"
    },
    {
      "inputs": [],
      "name": "getCurrentPrice",
      "outputs": [
        {
          "internalType": "uint256",
          "name": "",
          "type": "uint256"
        }
      ],
      "stateMutability": "view",
      "type": "function"
    },
    {
      "inputs": [],
      "name": "handle",
      "outputs": [
        {
          "internalType": "string",
          "name": "",
          "type": "string"
        }
      ],
      "stateMutability": "view",
      "type": "function"
    },
    {
      "inputs": [],
      "name": "lastUpdate",
      "outputs": [
        {
          "internalType": "uint256",
          "name": "",
          "type": "uint256"
        }
      ],
      "stateMutability": "view",
      "type": "function"
    },
    {
      "inputs": [],
      "name": "name",
      "outputs": [
        {
          "internalType": "string",
          "name": "",
          "type": "string"
        }
      ],
      "stateMutability": "view",
      "type": "function"
    },
    {
      "inputs": [],
      "name": "owner",
      "outputs": [
        {
          "internalType": "address",
          "name": "",
          "type": "address"
        }
      ],
      "stateMutability": "view",
      "type": "function"
    },
    {
      "inputs": [],
      "name": "renounceOwnership",
      "outputs": [],
      "stateMutability": "nonpayable",
      "type": "function"
    },
    {
      "inputs": [
        {
          "internalType": "uint256",
          "name": "tokenAmount",
          "type": "uint256"
        }
      ],
      "name": "sell",
      "outputs": [],
      "stateMutability": "nonpayable",
      "type": "function"
    },
    {
      "inputs": [
        {
          "internalType": "uint256",
          "name": "_newScore",
          "type": "uint256"
        }
      ],
      "name": "setEngagementScore",
      "outputs": [],
      "stateMutability": "nonpayable",
      "type": "function"
    },
    {
      "inputs": [],
      "name": "symbol",
      "outputs": [
        {
          "internalType": "string",
          "name": "",
          "type": "string"
        }
      ],
      "stateMutability": "view",
      "type": "function"
    },
    {
      "inputs": [],
      "name": "totalSupply",
      "outputs": [
        {
          "internalType": "uint256",
          "name": "",
          "type": "uint256"
        }
      ],
      "stateMutability": "view",
      "type": "function"
    },
    {
      "inputs": [
        {
          "internalType": "address",
          "name": "to",
          "type": "address"
        },
        {
          "internalType": "uint256",
          "name": "value",
          "type": "uint256"
        }
      ],
      "name": "transfer",
      "outputs": [
        {
          "internalType": "bool",
          "name": "",
          "type": "bool"
        }
      ],
      "stateMutability": "nonpayable",
      "type": "function"
    },
    {
      "inputs": [
        {
          "internalType": "address",
          "name": "from",
          "type": "address"
        },
        {
          "internalType": "address",
          "name": "to",
          "type": "address"
        },
        {
          "internalType": "uint256",
          "name": "value",
          "type": "uint256"
        }
      ],
      "name": "transferFrom",
      "outputs": [
        {
          "internalType": "bool",
          "name": "",
          "type": "bool"
        }
      ],
      "stateMutability": "nonpayable",
      "type": "function"
    },
    {
      "inputs": [
        {
          "internalType": "address",
          "name": "newOwner",
          "type": "address"
        }
      ],
      "name": "transferOwnership",
      "outputs": [],
      "stateMutability": "nonpayable",
      "type": "function"
    },
    {
      "stateMutability": "payable",
      "type": "receive"
    }
  ],
  "bytecode": "0x60806040523480156200001157600080fd5b50604051620028de380380620028de83398181016040528101906200003791906200067e565b33838381600390816200004b91906200098e565b5080600490816200005d91906200098e565b505050600073ffffffffffffffffffffffffffffffffffffffff168173ffffffffffffffffffffffffffffffffffffffff1603620000d55760006040517f1e4fbdf7000000000000000000000000000000000000000000000000000000008152600401620000cc919062000aba565b60405180910390fd5b620000e6816200012d60201b60201c565b508360069081620000f891906200098e565b508060078190555042600881905550620001233069d3c21bcecceda1000000620001f360201b60201c565b5050505062000bac565b6000600560009054906101000a900473ffffffffffffffffffffffffffffffffffffffff16905081600560006101000a81548173ffffffffffffffffffffffffffffffffffffffff021916908373ffffffffffffffffffffffffffffffffffffffff1602179055508173ffffffffffffffffffffffffffffffffffffffff168173ffffffffffffffffffffffffffffffffffffffff167f8be0079c531659141344cd1fd0a4f28419497f9722a3daafe3b4186f6b6457e060405160405180910390a35050565b600073ffffffffffffffffffffffffffffffffffffffff168273ffffffffffffffffffffffffffffffffffffffff1603620002685760006040517fec442f050000000000000000000000000000000000000000000000000000000081526004016200025f919062000aba565b60405180910390fd5b6200027c600083836200028060201b60201c565b5050565b600073ffffffffffffffffffffffffffffffffffffffff168373ffffffffffffffffffffffffffffffffffffffff1603620002d6578060026000828254620002c9919062000b06565b92505081905550620003ac565b60008060008573ffffffffffffffffffffffffffffffffffffffff1673ffffffffffffffffffffffffffffffffffffffff1681526020019081526020016000205490508181101562000365578381836040517fe450d38c0000000000000000000000000000000000000000000000000000000081526004016200035c9392919062000b52565b60405180910390fd5b8181036000808673ffffffffffffffffffffffffffffffffffffffff1673ffffffffffffffffffffffffffffffffffffffff16815260200190815260200160002081905550505b600073ffffffffffffffffffffffffffffffffffffffff168273ffffffffffffffffffffffffffffffffffffffff1603620003f7578060026000828254039250508190555062000444565b806000808473ffffffffffffffffffffffffffffffffffffffff1673ffffffffffffffffffffffffffffffffffffffff168152602001908152602001600020600082825401925050819055505b8173ffffffffffffffffffffffffffffffffffffffff168373ffffffffffffffffffffffffffffffffffffffff167fddf252ad1be2c89b69c2b068fc378daa952ba7f163c4a11628f55a4df523b3ef83604051620004a3919062000b8f565b60405180910390a3505050565b6000604051905090565b600080fd5b600080fd5b600080fd5b600080fd5b6000601f19601f8301169050919050565b7f4e487b7100000000000000000000000000000000000000000000000000000000600052604160045260246000fd5b6200051982620004ce565b810181811067ffffffffffffffff821117156200053b576200053a620004df565b5b80604052505050565b600062000550620004b0565b90506200055e82826200050e565b919050565b600067ffffffffffffffff821115620005815762000580620004df565b5b6200058c82620004ce565b9050602081019050919050565b60005b83811015620005b95780820151818401526020810190506200059c565b60008484015250505050565b6000620005dc620005d68462000563565b62000544565b905082815260208101848484011115620005fb57620005fa620004c9565b5b6200060884828562000599565b509392505050565b600082601f830112620006285762000627620004c4565b5b81516200063a848260208601620005c5565b91505092915050565b6000819050919050565b620006588162000643565b81146200066457600080fd5b50565b60008151905062000678816200064d565b92915050565b600080600080608085870312156200069b576200069a620004ba565b5b600085015167ffffffffffffffff811115620006bc57620006bb620004bf565b5b620006ca8782880162000610565b945050602085015167ffffffffffffffff811115620006ee57620006ed620004bf565b5b620006fc8782880162000610565b935050604085015167ffffffffffffffff81111562000720576200071f620004bf565b5b6200072e8782880162000610565b9250506060620007418782880162000667565b91505092959194509250565b600081519050919050565b7f4e487b7100000000000000000000000000000000000000000000000000000000600052602260045260246000fd5b60006002820490506001821680620007a057607f821691505b602082108103620007b657620007b562000758565b5b50919050565b60008190508160005260206000209050919050565b60006020601f8301049050919050565b600082821b905092915050565b600060088302620008207fffffffffffffffffffffffffffffffffffffffffffffffffffffffffffffffff82620007e1565b6200082c8683620007e1565b95508019841693508086168417925050509392505050565b6000819050919050565b60006200086f62000869620008638462000643565b62000844565b62000643565b9050919050565b6000819050919050565b6200088b836200084e565b620008a36200089a8262000876565b848454620007ee565b825550505050565b600090565b620008ba620008ab565b620008c781848462000880565b505050565b5b81811015620008ef57620008e3600082620008b0565b600181019050620008cd565b5050565b601f8211156200093e576200090881620007bc565b6200091384620007d1565b8101602085101562000923578190505b6200093b6200093285620007d1565b830182620008cc565b50505b505050565b600082821c905092915050565b6000620009636000198460080262000943565b1980831691505092915050565b60006200097e838362000950565b9150826002028217905092915050565b62000999826200074d565b67ffffffffffffffff811115620009b557620009b4620004df565b5b620009c1825462000787565b620009ce828285620008f3565b600060209050601f83116001811462000a065760008415620009f1578287015190505b620009fd858262000970565b86555062000a6d565b601f19841662000a1686620007bc565b60005b8281101562000a405784890151825560018201915060208501945060208101905062000a19565b8683101562000a60578489015162000a5c601f89168262000950565b8355505b6001600288020188555050505b505050505050565b600073ffffffffffffffffffffffffffffffffffffffff82169050919050565b600062000aa28262000a75565b9050919050565b62000ab48162000a95565b82525050565b600060208201905062000ad1600083018462000aa9565b92915050565b7f4e487b7100000000000000000000000000000000000000000000000000000000600052601160045260246000fd5b600062000b138262000643565b915062000b208362000643565b925082820190508082111562000b3b5762000b3a62000ad7565b5b92915050565b62000b4c8162000643565b82525050565b600060608201905062000b69600083018662000aa9565b62000b78602083018562000b41565b62000b87604083018462000b41565b949350505050565b600060208201905062000ba6600083018462000b41565b92915050565b611d228062000bbc6000396000f3fe60806040526004361061012e5760003560e01c806395d89b41116100ab578063d63efc5e1161006f578063d63efc5e146103d0578063dd62ed3e146103fb578063e4849b3214610438578063eb91d37e14610461578063f2fde38b1461048c578063fd0da099146104b557610135565b806395d89b411461030a578063a6f2ae3a14610335578063a9059cbb1461033f578063ad0ebab11461037c578063c0463711146103a557610135565b8063313ce567116100f2578063313ce567146102355780636f9fb98a1461026057806370a082311461028b578063715018a6146102c85780638da5cb5b146102df57610135565b806306fdde031461013a578063095ea7b31461016557806318160ddd146101a257806323b872dd146101cd5780632ff2e9dc1461020a57610135565b3661013557005b600080fd5b34801561014657600080fd5b5061014f6104e0565b60405161015c91906114d9565b60405180910390f35b34801561017157600080fd5b5061018c60048036038101906101879190611594565b610572565b60405161019991906115ef565b60405180910390f35b3480156101ae57600080fd5b506101b7610595565b6040516101c49190611619565b60405180910390f35b3480156101d957600080fd5b506101f460048036038101906101ef9190611634565b61059f565b60405161020191906115ef565b60405180910390f35b34801561021657600080fd5b5061021f6105ce565b60405161022c9190611619565b60405180910390f35b34801561024157600080fd5b5061024a6105dc565b60405161025791906116a3565b60405180910390f35b34801561026c57600080fd5b506102756105e5565b6040516102829190611619565b60405180910390f35b34801561029757600080fd5b506102b260048036038101906102ad91906116be565b6105ed565b6040516102bf9190611619565b60405180910390f35b3480156102d457600080fd5b506102dd610635565b005b3480156102eb57600080fd5b506102f4610649565b60405161030191906116fa565b60405180910390f35b34801561031657600080fd5b5061031f610673565b60405161032c91906114d9565b60405180910390f35b61033d610705565b005b34801561034b57600080fd5b5061036660048036038101906103619190611594565b610827565b60405161037391906115ef565b60405180910390f35b34801561038857600080fd5b506103a3600480360381019061039e9190611715565b61084a565b005b3480156103b157600080fd5b506103ba6108eb565b6040516103c79190611619565b60405180910390f35b3480156103dc57600080fd5b506103e56108f1565b6040516103f29190611619565b60405180910390f35b34801561040757600080fd5b50610422600480360381019061041d9190611742565b6108f7565b60405161042f9190611619565b60405180910390f35b34801561044457600080fd5b5061045f600480360381019061045a9190611715565b61097e565b005b34801561046d57600080fd5b50610476610bae565b6040516104839190611619565b60405180910390f35b34801561049857600080fd5b506104b360048036038101906104ae91906116be565b610c49565b005b3480156104c157600080fd5b506104ca610ccf565b6040516104d791906114d9565b60405180910390f35b6060600380546104ef906117b1565b80601f016020809104026020016040519081016040528092919081815260200182805461051b906117b1565b80156105685780601f1061053d57610100808354040283529160200191610568565b820191906000526020600020905b81548152906001019060200180831161054b57829003601f168201915b5050505050905090565b60008061057d610d5d565b905061058a818585610d65565b600191505092915050565b6000600254905090565b6000806105aa610d5d565b90506105b7858285610d77565b6105c2858585610e0c565b60019150509392505050565b69d3c21bcecceda100000081565b60006012905090565b600047905090565b60008060008373ffffffffffffffffffffffffffffffffffffffff1673ffffffffffffffffffffffffffffffffffffffff168152602001908152602001600020549050919050565b61063d610f00565b6106476000610f87565b565b6000600560009054906101000a900473ffffffffffffffffffffffffffffffffffffffff16905090565b606060048054610682906117b1565b80601f01602080910402602001604051908101604052809291908181526020018280546106ae906117b1565b80156106fb5780601f106106d0576101008083540402835291602001916106fb565b820191906000526020600020905b8154815290600101906020018083116106de57829003601f168201915b5050505050905090565b60003411610748576040517f08c379a000000000000000000000000000000000000000000000000000000000815260040161073f9061182e565b60405180910390fd5b6000610752610bae565b9050600081670de0b6b3a76400003461076b919061187d565b61077591906118ee565b90506000610782306105ed565b9050808211156107c7576040517f08c379a00000000000000000000000000000000000000000000000000000000081526004016107be9061196b565b60405180910390fd5b6107d2303384610e0c565b3373ffffffffffffffffffffffffffffffffffffffff167f8fafebcaf9d154343dad25669bfa277f4fbacd7ac6b0c4fed522580e040a0f33348460405161081a92919061198b565b60405180910390a2505050565b600080610832610d5d565b905061083f818585610e0c565b600191505092915050565b610852610f00565b6103e8811115610897576040517f08c379a000000000000000000000000000000000000000000000000000000000815260040161088e90611a00565b60405180910390fd5b6000600754905081600781905550426008819055507fb2383e82269e758b9ec0fc961ac69cecc166570a12068c11b3f9cf29c8de9e888183426040516108df93929190611a20565b60405180910390a15050565b60085481565b60075481565b6000600160008473ffffffffffffffffffffffffffffffffffffffff1673ffffffffffffffffffffffffffffffffffffffff16815260200190815260200160002060008373ffffffffffffffffffffffffffffffffffffffff1673ffffffffffffffffffffffffffffffffffffffff16815260200190815260200160002054905092915050565b600081116109c1576040517f08c379a00000000000000000000000000000000000000000000000000000000081526004016109b890611aa3565b60405180910390fd5b806109cb336105ed565b1015610a0c576040517f08c379a0000000000000000000000000000000000000000000000000000000008152600401610a0390611b0f565b60405180910390fd5b6000610a16610bae565b90506000670de0b6b3a76400008284610a2f919061187d565b610a3991906118ee565b90506000606482610a4a91906118ee565b905060008183610a5a9190611b2f565b905080471015610a9f576040517f08c379a0000000000000000000000000000000000000000000000000000000008152600401610a9690611baf565b60405180910390fd5b610aaa333087610e0c565b60003373ffffffffffffffffffffffffffffffffffffffff1682604051610ad090611c00565b60006040518083038185875af1925050503d8060008114610b0d576040519150601f19603f3d011682016040523d82523d6000602084013e610b12565b606091505b5050905080610b56576040517f08c379a0000000000000000000000000000000000000000000000000000000008152600401610b4d90611c61565b60405180910390fd5b3373ffffffffffffffffffffffffffffffffffffffff167f2dcf9433d75db0d8b1c172641f85e319ffe4ad22e108a95d1847ceb906e5195d8784604051610b9e92919061198b565b60405180910390a2505050505050565b600080610bba306105ed565b69d3c21bcecceda1000000610bcf9190611b2f565b90506000655af3107a4000905060006402540be400905060006007546064610bf79190611c81565b90506000670de0b6b3a76400008584610c10919061187d565b610c1a91906118ee565b84610c259190611c81565b905060648282610c35919061187d565b610c3f91906118ee565b9550505050505090565b610c51610f00565b600073ffffffffffffffffffffffffffffffffffffffff168173ffffffffffffffffffffffffffffffffffffffff1603610cc35760006040517f1e4fbdf7000000000000000000000000000000000000000000000000000000008152600401610cba91906116fa565b60405180910390fd5b610ccc81610f87565b50565b60068054610cdc906117b1565b80601f0160208091040260200160405190810160405280929190818152602001828054610d08906117b1565b8015610d555780601f10610d2a57610100808354040283529160200191610d55565b820191906000526020600020905b815481529060010190602001808311610d3857829003601f168201915b505050505081565b600033905090565b610d72838383600161104d565b505050565b6000610d8384846108f7565b90507fffffffffffffffffffffffffffffffffffffffffffffffffffffffffffffffff811015610e065781811015610df6578281836040517ffb8f41b2000000000000000000000000000000000000000000000000000000008152600401610ded93929190611cb5565b60405180910390fd5b610e058484848403600061104d565b5b50505050565b600073ffffffffffffffffffffffffffffffffffffffff168373ffffffffffffffffffffffffffffffffffffffff1603610e7e5760006040517f96c6fd1e000000000000000000000000000000000000000000000000000000008152600401610e7591906116fa565b60405180910390fd5b600073ffffffffffffffffffffffffffffffffffffffff168273ffffffffffffffffffffffffffffffffffffffff1603610ef05760006040517fec442f05000000000000000000000000000000000000000000000000000000008152600401610ee791906116fa565b60405180910390fd5b610efb838383611224565b505050565b610f08610d5d565b73ffffffffffffffffffffffffffffffffffffffff16610f26610649565b73ffffffffffffffffffffffffffffffffffffffff1614610f8557610f49610d5d565b6040517f118cdaa7000000000000000000000000000000000000000000000000000000008152600401610f7c91906116fa565b60405180910390fd5b565b6000600560009054906101000a900473ffffffffffffffffffffffffffffffffffffffff16905081600560006101000a81548173ffffffffffffffffffffffffffffffffffffffff021916908373ffffffffffffffffffffffffffffffffffffffff1602179055508173ffffffffffffffffffffffffffffffffffffffff168173ffffffffffffffffffffffffffffffffffffffff167f8be0079c531659141344cd1fd0a4f28419497f9722a3daafe3b4186f6b6457e060405160405180910390a35050565b600073ffffffffffffffffffffffffffffffffffffffff168473ffffffffffffffffffffffffffffffffffffffff16036110bf5760006040517fe602df050000000000000000000000000000000000000000000000000000000081526004016110b691906116fa565b60405180910390fd5b600073ffffffffffffffffffffffffffffffffffffffff168373ffffffffffffffffffffffffffffffffffffffff16036111315760006040517f94280d6200000000000000000000000000000000000000000000000000000000815260040161112891906116fa565b60405180910390fd5b81600160008673ffffffffffffffffffffffffffffffffffffffff1673ffffffffffffffffffffffffffffffffffffffff16815260200190815260200160002060008573ffffffffffffffffffffffffffffffffffffffff1673ffffffffffffffffffffffffffffffffffffffff16815260200190815260200160002081905550801561121e578273ffffffffffffffffffffffffffffffffffffffff168473ffffffffffffffffffffffffffffffffffffffff167f8c5be1e5ebec7d5bd14f71427d1e84f3dd0314c0f7b2291e5b200ac8c7c3b925846040516112159190611619565b60405180910390a35b50505050565b600073ffffffffffffffffffffffffffffffffffffffff168373ffffffffffffffffffffffffffffffffffffffff160361127657806002600082825461126a9190611c81565b92505081905550611349565b60008060008573ffffffffffffffffffffffffffffffffffffffff1673ffffffffffffffffffffffffffffffffffffffff16815260200190815260200160002054905081811015611302578381836040517fe450d38c0000000000000000000000000000000000000000000000000000000081526004016112f993929190611cb5565b60405180910390fd5b8181036000808673ffffffffffffffffffffffffffffffffffffffff1673ffffffffffffffffffffffffffffffffffffffff16815260200190815260200160002081905550505b600073ffffffffffffffffffffffffffffffffffffffff168273ffffffffffffffffffffffffffffffffffffffff160361139257806002600082825403925050819055506113df565b806000808473ffffffffffffffffffffffffffffffffffffffff1673ffffffffffffffffffffffffffffffffffffffff168152602001908152602001600020600082825401925050819055505b8173ffffffffffffffffffffffffffffffffffffffff168373ffffffffffffffffffffffffffffffffffffffff167fddf252ad1be2c89b69c2b068fc378daa952ba7f163c4a11628f55a4df523b3ef8360405161143c9190611619565b60405180910390a3505050565b600081519050919050565b600082825260208201905092915050565b60005b83811015611483578082015181840152602081019050611468565b60008484015250505050565b6000601f19601f8301169050919050565b60006114ab82611449565b6114b58185611454565b93506114c5818560208601611465565b6114ce8161148f565b840191505092915050565b600060208201905081810360008301526114f381846114a0565b905092915050565b600080fd5b600073ffffffffffffffffffffffffffffffffffffffff82169050919050565b600061152b82611500565b9050919050565b61153b81611520565b811461154657600080fd5b50565b60008135905061155881611532565b92915050565b6000819050919050565b6115718161155e565b811461157c57600080fd5b50565b60008135905061158e81611568565b92915050565b600080604083850312156115ab576115aa6114fb565b5b60006115b985828601611549565b92505060206115ca8582860161157f565b9150509250929050565b60008115159050919050565b6115e9816115d4565b82525050565b600060208201905061160460008301846115e0565b92915050565b6116138161155e565b82525050565b600060208201905061162e600083018461160a565b92915050565b60008060006060848603121561164d5761164c6114fb565b5b600061165b86828701611549565b935050602061166c86828701611549565b925050604061167d8682870161157f565b9150509250925092565b600060ff82169050919050565b61169d81611687565b82525050565b60006020820190506116b86000830184611694565b92915050565b6000602082840312156116d4576116d36114fb565b5b60006116e284828501611549565b91505092915050565b6116f481611520565b82525050565b600060208201905061170f60008301846116eb565b92915050565b60006020828403121561172b5761172a6114fb565b5b60006117398482850161157f565b91505092915050565b60008060408385031215611759576117586114fb565b5b600061176785828601611549565b925050602061177885828601611549565b9150509250929050565b7f4e487b7100000000000000000000000000000000000000000000000000000000600052602260045260246000fd5b600060028204905060018216806117c957607f821691505b6020821081036117dc576117db611782565b5b50919050565b7f4d7573742073656e642045544800000000000000000000000000000000000000600082015250565b6000611818600d83611454565b9150611823826117e2565b602082019050919050565b600060208201905081810360008301526118478161180b565b9050919050565b7f4e487b7100000000000000000000000000000000000000000000000000000000600052601160045260246000fd5b60006118888261155e565b91506118938361155e565b92508282026118a18161155e565b915082820484148315176118b8576118b761184e565b5b5092915050565b7f4e487b7100000000000000000000000000000000000000000000000000000000600052601260045260246000fd5b60006118f98261155e565b91506119048361155e565b925082611914576119136118bf565b5b828204905092915050565b7f4e6f7420656e6f75676820746f6b656e7320617661696c61626c650000000000600082015250565b6000611955601b83611454565b91506119608261191f565b602082019050919050565b6000602082019050818103600083015261198481611948565b9050919050565b60006040820190506119a0600083018561160a565b6119ad602083018461160a565b9392505050565b7f53636f7265206d757374206265203c3d20313030300000000000000000000000600082015250565b60006119ea601583611454565b91506119f5826119b4565b602082019050919050565b60006020820190508181036000830152611a19816119dd565b9050919050565b6000606082019050611a35600083018661160a565b611a42602083018561160a565b611a4f604083018461160a565b949350505050565b7f4d7573742073656c6c203e203000000000000000000000000000000000000000600082015250565b6000611a8d600d83611454565b9150611a9882611a57565b602082019050919050565b60006020820190508181036000830152611abc81611a80565b9050919050565b7f496e73756666696369656e742062616c616e6365000000000000000000000000600082015250565b6000611af9601483611454565b9150611b0482611ac3565b602082019050919050565b60006020820190508181036000830152611b2881611aec565b9050919050565b6000611b3a8261155e565b9150611b458361155e565b9250828203905081811115611b5d57611b5c61184e565b5b92915050565b7f496e73756666696369656e742045544820696e20636f6e747261637400000000600082015250565b6000611b99601c83611454565b9150611ba482611b63565b602082019050919050565b60006020820190508181036000830152611bc881611b8c565b9050919050565b600081905092915050565b50565b6000611bea600083611bcf565b9150611bf582611bda565b600082019050919050565b6000611c0b82611bdd565b9150819050919050565b7f455448207472616e73666572206661696c656400000000000000000000000000600082015250565b6000611c4b601383611454565b9150611c5682611c15565b602082019050919050565b60006020820190508181036000830152611c7a81611c3e565b9050919050565b6000611c8c8261155e565b9150611c978361155e565b9250828201905080821115611caf57611cae61184e565b5b92915050565b6000606082019050611cca60008301866116eb565b611cd7602083018561160a565b611ce4604083018461160a565b94935050505056fea2646970667358221220c8bc7d13f84f10118641a9418e88c6b70d223989e03dfa5d612b8f34398ac72664736f6c63430008140033",
  "linkReferences": {},
  "deployedLinkReferences": {}
}